:100000000C9463000C948B000C948B000C948B006C
:100010000C948B000C948B000C948B000C948B0034
:100020000C948B000C948B000C948B000C948B0024
:100030000C948B000C948B000C948B000C948B0014
:100040000C9484020C948B000C948B000C948B0009
:100050000C948B000C948B000C948B000C948B00F4
:100060000C948B000C948B000000000024002700EF
:100070002A0000000000250028002B0000000000DE
:1000800023002600290004040404040404040202DA
:100090000202020203030303030301020408102007
:1000A0004080010204081020010204081020000012
:1000B0000008000201000003040700000000000027
:1000C0000000E805310611241FBECFEFD8E0DEBFE7
:1000D000CDBF11E0A0E0B1E0EAE4F3E102C0059099
:1000E0000D92A633B107D9F721E0A6E3B1E001C034
:1000F0001D92A936B207E1F710E0C2E6D0E004C0D5
:100100002197FE010E94A007C136D107C9F70E94BE
:10011000CE020C9498090C940000833081F028F4EE
:10012000813099F08230A9F008958730A9F08830A5
:10013000C9F08430B1F4809180008F7D03C080913C
:1001400080008F7780938000089584B58F7784BD79
:10015000089584B58F7DFBCF8091B0008F77809319
:10016000B00008958091B0008F7DF9CFCF93DF93D9
:10017000282F30E0F901E255FF4F8491F901E6564E
:10018000FF4FD491F901EA57FF4FC491CC23A1F05E
:1001900081110E948D00EC2FF0E0EE0FFF1FE4585C
:1001A000FF4FA591B491EC91ED2381E090E009F42B
:1001B00080E0DF91CF91089580E090E0FACF1F9327
:1001C000CF93DF93282F30E0F901E255FF4F849160
:1001D000F901E656FF4FD491F901EA57FF4FC49158
:1001E000CC23A9F0162F81110E948D00EC2FF0E096
:1001F000EE0FFF1FEE58FF4FA591B4918FB7F89403
:10020000EC91111108C0D095DE23DC938FBFDF91F4
:10021000CF911F910895DE2BF8CFCF93DF9390E01D
:10022000FC01E656FF4F24918A579F4FFC018491B1
:100230008823D1F090E0880F991FFC01E859FF4F07
:10024000A591B491FC01EE58FF4FC591D491623055
:1002500071F49FB7F8943C91822F809583238C93FF
:10026000E8812E2B28839FBFDF91CF9108958FB710
:10027000F894EC912E2B2C938FBFF6CF3FB7F894C8
:100280008091610190916201A0916301B09164013C
:1002900026B5A89B05C02F3F19F00196A11DB11DE1
:1002A0003FBFBA2FA92F982F8827BC01CD01620F1D
:1002B000711D811D911D42E0660F771F881F991FD8
:1002C0004A95D1F708958F929F92AF92BF92CF92A5
:1002D000DF92EF92FF924B015C010E943E016B01A5
:1002E0007C010E943E016C197D098E099F09683EC0
:1002F000734081059105A8F321E0821A9108A108B5
:10030000B10888EEC80E83E0D81EE11CF11C8114F0
:100310009104A104B10429F7FF90EF90DF90CF90F2
:10032000BF90AF909F908F9008952FB7F8946091F1
:100330005D0170915E0180915F01909160012FBF1E
:100340000895CF93DF93CDE1D1E08881229660E0DC
:100350000E94DF0081E0CD32D807B9F7DF91CF915D
:100360000895EF92FF920F931F93CF93DF93CDE108
:10037000D1E08E01F80180810E5F1F4F61E00E9485
:10038000DF0066E970E080E090E00E946301F1E048
:100390000D321F0779F70DE111E0F80180810E5F42
:1003A0001F4F60E00E94DF00F1E00D321F07A9F748
:1003B00066E970E080E090E00E94630192E0E92E3F
:1003C000F12C0DE111E0F80180810E5F1F4F61E01B
:1003D0000E94DF00F1E00D321F07A9F766E970E027
:1003E00080E090E00E9463010DE111E0F80180815E
:1003F0000E5F1F4F60E00E94DF00F1E00D321F072B
:10040000A9F766E970E080E090E00E946301EA9459
:10041000EF28A9F48881229661E00E94DF00E1E0E4
:10042000CD32DE07B9F764EF71E080E090E0DF9154
:10043000CF911F910F91FF90EF900C946301EE24E8
:10044000E394F12CBECFCF92DF92EF92FF92CF9345
:10045000DF93109203011092020181E090E09093EB
:1004600005018093040182E090E09093070180935E
:10047000060183E090E0909309018093080184E0F5
:1004800090E090930B0180930A0185E090E09093B7
:100490000D0180930C0186E090E090930F01809312
:1004A0000E0187E090E09093110180931001C2E06B
:1004B000D1E098E0C92ED12CE12CF12C0E948606C7
:1004C000A70196010E94DE062E853F85660F771FE5
:1004D000FB01EE5FFE4F808191819F878E87318384
:1004E000208381E0C81AD108E108F108229781E051
:1004F000C816D104E104F10409F7DF91CF91FF9010
:10050000EF90DF90CF9008951F920F920FB60F9249
:1005100011242F933F938F939F93AF93BF93809119
:100520005D0190915E01A0915F01B09160013091F9
:100530005C0123E0230F2D3758F50196A11DB11D55
:1005400020935C0180935D0190935E01A0935F0115
:10055000B09360018091610190916201A09163016B
:10056000B09164010196A11DB11D8093610190932A
:100570006201A0936301B0936401BF91AF919F9119
:100580008F913F912F910F900FBE0F901F90189554
:1005900026E8230F0296A11DB11DD2CF789484B511
:1005A000826084BD84B5816084BD85B5826085BD6F
:1005B00085B5816085BD80916E00816080936E00FD
:1005C00010928100809181008260809381008091EF
:1005D00081008160809381008091800081608093A0
:1005E00080008091B10084608093B1008091B00060
:1005F00081608093B00080917A00846080937A005B
:1006000080917A00826080937A0080917A00816084
:1006100080937A0080917A00806880937A001092AB
:10062000C100CDE1D1E01881229661E0812F0E94C6
:100630000D0161E0812F0E94DF0021E0CD32D20761
:1006400091F761E070E080E090E00E946301CDE10D
:10065000D1E01881229661E0812F0E940D0160E0B7
:10066000812F0E94DF0081E0CD32D80791F762E050
:1006700084E00E940D0162E083E00E940D0162E0CF
:1006800082E00E940D0180E480937C0080917A00DA
:10069000806480937A0080917A0086FDFCCF60911F
:1006A000780070917900072E000C880B990B61156A
:1006B00071058105910511F00E94D5060E94230263
:1006C00084E00E94B600909345018093440190938A
:1006D0003701809336010E94B101312C212CB3E007
:1006E000EB2EF12C18E1412E512C08E0602E712CDC
:1006F00084E00E94B6008C01809136019091370110
:100700000817190741F10E949501609358017093F1
:10071000590180935A0190935B01809112018823C3
:10072000C1F00E94A1010E94230210925501109273
:10073000540110924A0110924B0110924C011092F8
:100740004D0110924E0110924F01109250011092E3
:10075000510110921201109337010093360182E08B
:100760000E94B600892B41F50E94950160935801C3
:100770007093590180935A0190935B01809112010B
:100780008823C1F00E94A1010E942302109255010A
:100790001092540110924A0110924B0110924C0198
:1007A00010924D0110924E0110924F011092500183
:1007B00010925101109212010E949501009158016E
:1007C0001091590120915A0130915B01601B710B0E
:1007D000820B930B61367A4E8105910518F0B1E0DA
:1007E000B093120180911201882309F440C00DE1F9
:1007F00011E0F80180810E5F1F4F60E00E94DF0072
:10080000F1E00D321F07A9F7D12CC12C009138015E
:1008100010913901C8018C0D9D1DB3010E9478070C
:10082000FC01EE0FFF1FE35EFE4F61E080810E943E
:10083000DF002FEFC21AD20A83E0C816D10431F7C5
:10084000C8010196B3010E94780790933901809303
:10085000380164E670E080E090E00E94630180E08F
:1008600090E0892B09F444CF0E94000041CF84E03E
:100870000E94B6006C018091440190914501C81618
:10088000D90699F191E0C916D10479F50091560184
:10089000109157010E949501809040019090410174
:1008A000A0904201B0904301681979098A099B0917
:1008B0006330710581059105C0F083E00E94B600A8
:1008C0000197D1F1C8010196B2010E947807909377
:1008D0005701809356010E949501609340017093E7
:1008E00041018093420190934301D0924501C0920F
:1008F0004401C0905601D09057010E94A10172E0BE
:10090000872E71E0972EB12CA12C009154011091EB
:100910005501A016B1069CF4D401ED91FD914D0155
:10092000EE0FFF1FE35EFE4F61E080810E94DF005B
:10093000BFEFAB1ABB0AE9CFC8014796C5CF80917C
:10094000520190915301863991050CF0ECC0C6011B
:10095000B7010E947807FB01EE0FFF1FE35EFE4F19
:1009600061E080810E94DF0082E00E94B6005C01AD
:100970008091000190910101A816B906F1F10E9441
:1009800095012091460130914701409148015091D5
:100990004901621B730B840B950B63337105810551
:1009A000910538F1A114B104D1F4C601B7010E9438
:1009B0007807F801EE0FFF1FEE5FFE4F80819181F7
:1009C0006817790709F0D4C00F5F1F4F10935501C6
:1009D00000935401665B7E4FE1E0DB01EC930E94E3
:1009E000950160934601709347018093480190936D
:1009F0004901B0920101A0920001809154019091AF
:100A00005501089709F0D6C00DE111E0D8018C918D
:100A10000E5F1F4F61E00E94DF00B1E00D321B0747
:100A2000A9F768EE73E080E090E00E9463010DE1B9
:100A300011E0F80180810E5F1F4F60E00E94DF002F
:100A400068EC70E080E090E00E946301C017D1077D
:100A500081F70DE111E0D8018C910E5F1F4F61E02D
:100A60000E94DF0068EC70E080E090E00E9463018B
:100A7000C017D10781F70DE111E0F80180810E5F09
:100A80001F4F60E00E94DF0068EC70E080E090E0C3
:100A90000E946301C017D10781F710E000E0809148
:100AA0003E0190913F01081719070CF078C00E9491
:100AB000A10180913E0190913F010817190708F0AC
:100AC0006CC080913A0190913B01009709F465C098
:100AD000800F911FDC01AC9097E0C92ED12C0A2C1D
:100AE000000CBB08C5010C2C02C0959587950A9493
:100AF000E2F780FF0BC0F101EC19FD09EE0FFF1FBB
:100B0000E35EFE4F61E086850E94DF00B1E0CB1A14
:100B1000D10840F76CED75E080E090E00E94630141
:100B20000F5F1F4FBCCF8C32E1E09E0774F4C6010B
:100B3000B7010E947807FB01E65BFE4F80818823A6
:100B400039F0660F771FFB0109CF803991405CF4C3
:100B5000C601B7010E947807FB01EE0FFF1FE35E9D
:100B6000FE4F60E0FECE1092530110925201FCCE77
:100B7000109255011092540110924A0110924B01AB
:100B800010924C0110924D0110924E0110924F01A3
:100B9000109250011092510122CFA12C9DCF0E94A2
:100BA000A1010E94B1011092550110925401F1E08F
:100BB000F09312018091520190915301019690930C
:100BC00053018093520161E070E080E090E045CEF7
:100BD00010923B0110923A0110923D0110923C019B
:100BE00010923F0110923E0169E070E090E080E0D9
:100BF0000E94CB08009701F190933B0180933A014A
:100C000028E030E030933D0120933C0120913E01EB
:100C100030913F01232B11F4FC01108288E090E019
:100C200090933F0180933E016DE271E080913A0123
:100C300090913B010C94910980913A0190913B0174
:100C4000009711F00E94420810923B0110923A0165
:100C500010923F0110923E0110923D0110923C0112
:100C6000089580913A0190913B01009711F00C9406
:100C7000420808958F929F92AF92BF92CF92DF92D7
:100C8000EF92FF92CF93DF93EC01688179818A81A3
:100C90009B81611571058105910521F464E279ED6F
:100CA0008BE597E02DE133EF41E050E00E94DE0656
:100CB00049015A019B01AC01A7EAB1E40E94FD067B
:100CC0006B017C01ACEEB4EFA50194010E940B070F
:100CD000C60ED71EE81EF91EF7FE06C081E0C81A30
:100CE000D108E10880E8F80AC882D982EA82FB824A
:100CF000C701B6019F77DF91CF91FF90EF90DF9012
:100D0000CF90BF90AF909F908F9008958F929F92B9
:100D1000AF92BF92CF92DF92EF92FF926091130158
:100D20007091140180911501909116016115710562
:100D30008105910521F464E279ED8BE597E02DE1E1
:100D400033EF41E050E00E94DE0649015A019B0169
:100D5000AC01A7EAB1E40E94FD066B017C01ACEE98
:100D6000B4EFA50194010E940B07C60ED71EE81E22
:100D7000F91EF7FE06C081E0C81AD108E10880E834
:100D8000F80AC0921301D0921401E0921501F0927A
:100D90001601C701B6019F77FF90EF90DF90CF90CB
:100DA000BF90AF909F908F900895609313017093C0
:100DB000140180931501909316010895052E97FB59
:100DC0001EF400940E94F50657FD07D00E944707C5
:100DD00007FC03D04EF40C94F506509540953095E1
:100DE00021953F4F4F4F5F4F089590958095709597
:100DF00061957F4F8F4F9F4F08950E946907A59F70
:100E0000900DB49F900DA49F800D911D1124089505
:100E1000B7FF0C94FD060E94FD06821B930B0895FC
:100E20002F923F924F925F926F927F928F929F92FA
:100E3000AF92BF92CF92DF92EF92FF920F931F93E8
:100E4000CF93DF93CDB7DEB7CA1BDB0B0FB6F89499
:100E5000DEBF0FBECDBF09942A88398848885F84D9
:100E60006E847D848C849B84AA84B984C884DF804A
:100E7000EE80FD800C811B81AA81B981CE0FD11D2E
:100E80000FB6F894DEBF0FBECDBFED010895A1E20D
:100E90001A2EAA1BBB1BFD010DC0AA1FBB1FEE1FF4
:100EA000FF1FA217B307E407F50720F0A21BB30B3F
:100EB000E40BF50B661F771F881F991F1A9469F7BB
:100EC00060957095809590959B01AC01BD01CF0117
:100ED0000895A29FB001B39FC001A39F700D811D13
:100EE0001124911DB29F700D811D1124911D089533
:100EF00097FB072E16F4009407D077FD09D00E94C7
:100F00008C0707FC05D03EF4909581959F4F08957E
:100F1000709561957F4F0895AA1BBB1B51E107C0D7
:100F2000AA1FBB1FA617B70710F0A61BB70B881F79
:100F3000991F5A95A9F780959095BC01CD01089508
:100F4000EE0FFF1F0590F491E02D09940F931F936E
:100F5000CF93DF938230910510F482E090E0E0912E
:100F60006701F091680130E020E0B0E0A0E0309748
:100F700099F42115310509F44AC0281B390B243096
:100F80003105D8F58A819B816115710589F1FB01D5
:100F900093838283FE0111C04081518102811381BC
:100FA00048175907E0F04817590799F4109761F06E
:100FB00012960C93129713961C933296CF01DF91E1
:100FC000CF911F910F9108950093670110936801CD
:100FD000F4CF2115310551F04217530738F0A9011C
:100FE000DB019A01BD01DF01F801C1CFEF01F9CFAB
:100FF0009093680180936701CDCFFE01E20FF31F4C
:10100000819391932250310939832883D7CF20913E
:10101000650130916601232B41F420911901309133
:101020001A013093660120936501209117013091D8
:1010300018012115310541F42DB73EB740911B0130
:1010400050911C01241B350BE0916501F091660164
:10105000E217F307A0F42E1B3F0B2817390778F08F
:10106000AC014E5F5F4F2417350748F04E0F5F1FEE
:101070005093660140936501819391939FCFF0E077
:10108000E0E09CCFCF93DF930097E9F0FC0132972B
:1010900013821282A0916701B0916801ED0130E0E6
:1010A00020E01097A1F420813181820F931F2091BD
:1010B0006501309166012817390709F061C0F09386
:1010C0006601E0936501DF91CF910895EA01CE17A3
:1010D000DF07E8F54A815B819E0141155105B1F7B3
:1010E000E901FB83EA8349915991C40FD51FEC179D
:1010F000FD0761F4808191810296840F951FE901BB
:1011000099838883828193819B838A83F0E0E0E0E6
:1011100012968D919C9113970097B9F52D913C9162
:101120001197CD010296820F931F20916501309196
:1011300066012817390739F6309751F51092680182
:1011400010926701B0936601A0936501BCCFD38371
:10115000C28340815181840F951FC817D90761F45C
:101160004E5F5F4F88819981480F591F518340839B
:101170008A819B81938382832115310509F0B0CF49
:10118000F0936801E09367019ECFFD01DC01C0CFC1
:1011900013821282D7CFB0E0A0E0E1EDF8E00C942A
:1011A00012078C01009751F4CB010E94A6078C0115
:1011B000C801CDB7DEB7E0E10C942E07FC01E60FC5
:1011C000F71F9C0122503109E217F30708F49DC074
:1011D000D901CD91DC911197C617D70798F0C5308A
:1011E000D10530F3CE0104978617970708F3C61B85
:1011F000D70B2297C193D1936D937C93CF010E941B
:101200004208D6CF5B01AC1ABD0A4C018C0E9D1E64
:10121000A0916701B0916801512C412CF12CE12C77
:10122000109731F5809165019091660188159905B7
:1012300009F05CC04616570608F058C080911701A7
:1012400090911801009741F48DB79EB740911B0112
:1012500050911C01841B950BE817F90708F055C045
:10126000F0936601E0936501F90171836083A0CF7B
:101270008D919C91119712966C90129713967C9079
:101280001397A815B90559F56C0142E0C40ED11C9D
:10129000CA14DB0420F1AC014A195B09DA01129689
:1012A000159780F06282738251834083D9016D93D8
:1012B0007C93E114F10471F0D7011396FC93EE9343
:1012C000129776CF22968C0F9D1FF9019183808310
:1012D000F301EFCFF0936801E093670169CF4816FF
:1012E000590608F42C017D01D3019ACFCB010E944D
:1012F000A6077C01009749F0AE01B8010E94880959
:10130000C8010E944208870153CF10E000E050CF8F
:10131000FB01DC0102C001900D9241505040D8F712
:101320000895FB01DC0101900D920020E1F7089582
:1013300010E0C2E6D0E004C0FE010E94A0072196A2
:10134000C336D107C9F7F894FFCF010000000100B0
:101350000200030004000500060007000101000070
:101360000000006901800005000600070008000970
:10137000000A000B000C006177745F3450334300A7
:10138000FFFFFFFFFFFFFFFFFFFFFFFFFFFFFFFF6D
:10139000FFFFFFFFFFFFFFFFFFFFFFFFFFFFFFFF5D
:1013A000FFFFFFFFFFFFFFFFFFFFFFFFFFFFFFFF4D
:1013B000FFFFFFFFFFFFFFFFFFFFFFFFFFFFFFFF3D
:00000001FF
